{
  "_format": "hh-sol-artifact-1",
  "contractName": "ecommerce",
  "sourceName": "contracts/ecommerce.sol",
  "abi": [
    {
      "anonymous": false,
      "inputs": [
        {
          "indexed": false,
          "internalType": "uint256",
          "name": "productId",
          "type": "uint256"
        },
        {
          "indexed": false,
          "internalType": "address",
          "name": "buyer",
          "type": "address"
        }
      ],
      "name": "bought",
      "type": "event"
    },
    {
      "anonymous": false,
      "inputs": [
        {
          "indexed": false,
          "internalType": "uint256",
          "name": "productId",
          "type": "uint256"
        }
      ],
      "name": "delivered",
      "type": "event"
    },
    {
      "anonymous": false,
      "inputs": [
        {
          "indexed": false,
          "internalType": "string",
          "name": "title",
          "type": "string"
        },
        {
          "indexed": false,
          "internalType": "address",
          "name": "seller",
          "type": "address"
        },
        {
          "indexed": false,
          "internalType": "uint256",
          "name": "productId",
          "type": "uint256"
        }
      ],
      "name": "registered",
      "type": "event"
    },
    {
      "inputs": [
        {
          "internalType": "uint256",
          "name": "",
          "type": "uint256"
        }
      ],
      "name": "allProducts",
      "outputs": [
        {
          "internalType": "string",
          "name": "title",
          "type": "string"
        },
        {
          "internalType": "string",
          "name": "desc",
          "type": "string"
        },
        {
          "internalType": "uint256",
          "name": "price",
          "type": "uint256"
        },
        {
          "internalType": "address",
          "name": "buyer",
          "type": "address"
        },
        {
          "internalType": "address payable",
          "name": "seller",
          "type": "address"
        },
        {
          "internalType": "uint256",
          "name": "productId",
          "type": "uint256"
        },
        {
          "internalType": "bool",
          "name": "delivered",
          "type": "bool"
        }
      ],
      "stateMutability": "view",
      "type": "function"
    },
    {
      "inputs": [
        {
          "internalType": "uint256",
          "name": "_productId",
          "type": "uint256"
        }
      ],
      "name": "buy",
      "outputs": [],
      "stateMutability": "payable",
      "type": "function"
    },
    {
      "inputs": [],
      "name": "count",
      "outputs": [
        {
          "internalType": "uint256",
          "name": "",
          "type": "uint256"
        }
      ],
      "stateMutability": "view",
      "type": "function"
    },
    {
      "inputs": [
        {
          "internalType": "uint256",
          "name": "_productId",
          "type": "uint256"
        }
      ],
      "name": "delivery",
      "outputs": [],
      "stateMutability": "nonpayable",
      "type": "function"
    },
    {
      "inputs": [
        {
          "internalType": "string",
          "name": "_title",
          "type": "string"
        },
        {
          "internalType": "string",
          "name": "_desc",
          "type": "string"
        },
        {
          "internalType": "uint256",
          "name": "_price",
          "type": "uint256"
        }
      ],
      "name": "registerProduct",
      "outputs": [],
      "stateMutability": "nonpayable",
      "type": "function"
    }
  ],
  "bytecode": "0x60806040526001805534801561001457600080fd5b50611185806100246000396000f3fe60806040526004361061004a5760003560e01c806306661abd1461004f5780631144fd721461007a5780633153a15b146100a3578063cfaaef56146100cc578063d96a094a1461010f575b600080fd5b34801561005b57600080fd5b5061006461012b565b60405161007191906109c7565b60405180910390f35b34801561008657600080fd5b506100a1600480360381019061009c9190610a22565b610131565b005b3480156100af57600080fd5b506100ca60048036038101906100c59190610b95565b61033d565b005b3480156100d857600080fd5b506100f360048036038101906100ee9190610a22565b610582565b6040516101069796959493929190610d25565b60405180910390f35b61012960048036038101906101249190610a22565b610731565b005b60015481565b3373ffffffffffffffffffffffffffffffffffffffff1660006001836101579190610dd1565b8154811061016857610167610e05565b5b906000526020600020906007020160040160009054906101000a900473ffffffffffffffffffffffffffffffffffffffff1673ffffffffffffffffffffffffffffffffffffffff16146101f0576040517f08c379a00000000000000000000000000000000000000000000000000000000081526004016101e790610e80565b60405180910390fd5b600160006001836102019190610dd1565b8154811061021257610211610e05565b5b906000526020600020906007020160060160006101000a81548160ff02191690831515021790555060006001826102499190610dd1565b8154811061025a57610259610e05565b5b906000526020600020906007020160040160009054906101000a900473ffffffffffffffffffffffffffffffffffffffff1673ffffffffffffffffffffffffffffffffffffffff166108fc60006001846102b49190610dd1565b815481106102c5576102c4610e05565b5b9060005260206000209060070201600201549081150290604051600060405180830381858888f19350505050158015610302573d6000803e3d6000fd5b507f4b5e4108167a669a2da8b1edeb1bf605987224cec90eeca47f7f235104539f218160405161033291906109c7565b60405180910390a150565b60008111610380576040517f08c379a000000000000000000000000000000000000000000000000000000000815260040161037790610eec565b60405180910390fd5b6103886108a0565b838160000181905250828160200181905250670de0b6b3a7640000826103ae9190610f0c565b81604001818152505033816080019073ffffffffffffffffffffffffffffffffffffffff16908173ffffffffffffffffffffffffffffffffffffffff16815250506001548160a00181815250506000819080600181540180825580915050600190039060005260206000209060070201600090919091909150600082015181600001908051906020019061044392919061090b565b50602082015181600101908051906020019061046092919061090b565b506040820151816002015560608201518160030160006101000a81548173ffffffffffffffffffffffffffffffffffffffff021916908373ffffffffffffffffffffffffffffffffffffffff16021790555060808201518160040160006101000a81548173ffffffffffffffffffffffffffffffffffffffff021916908373ffffffffffffffffffffffffffffffffffffffff16021790555060a0820151816005015560c08201518160060160006101000a81548160ff02191690831515021790555050506001600081548092919061053890610f66565b91905055507f111d17a10a1a3bc5a7a1c1fc47ca1da6fbfc62fef1f56caca227a5448d203e2a84338360a0015160405161057493929190610faf565b60405180910390a150505050565b6000818154811061059257600080fd5b90600052602060002090600702016000915090508060000180546105b59061101c565b80601f01602080910402602001604051908101604052809291908181526020018280546105e19061101c565b801561062e5780601f106106035761010080835404028352916020019161062e565b820191906000526020600020905b81548152906001019060200180831161061157829003601f168201915b5050505050908060010180546106439061101c565b80601f016020809104026020016040519081016040528092919081815260200182805461066f9061101c565b80156106bc5780601f10610691576101008083540402835291602001916106bc565b820191906000526020600020905b81548152906001019060200180831161069f57829003601f168201915b5050505050908060020154908060030160009054906101000a900473ffffffffffffffffffffffffffffffffffffffff16908060040160009054906101000a900473ffffffffffffffffffffffffffffffffffffffff16908060050154908060060160009054906101000a900460ff16905087565b3460006001836107419190610dd1565b8154811061075257610751610e05565b5b906000526020600020906007020160020154146107a4576040517f08c379a000000000000000000000000000000000000000000000000000000000815260040161079b9061109a565b60405180910390fd5b3373ffffffffffffffffffffffffffffffffffffffff1660006001836107ca9190610dd1565b815481106107db576107da610e05565b5b906000526020600020906007020160040160009054906101000a900473ffffffffffffffffffffffffffffffffffffffff1673ffffffffffffffffffffffffffffffffffffffff161415610864576040517f08c379a000000000000000000000000000000000000000000000000000000000815260040161085b90611106565b60405180910390fd5b7f2c9b5e9655a41ab13c5183c231239df125ecbd546a947624c913cfd43094906e8133604051610895929190611126565b60405180910390a150565b6040518060e00160405280606081526020016060815260200160008152602001600073ffffffffffffffffffffffffffffffffffffffff168152602001600073ffffffffffffffffffffffffffffffffffffffff168152602001600081526020016000151581525090565b8280546109179061101c565b90600052602060002090601f0160209004810192826109395760008555610980565b82601f1061095257805160ff1916838001178555610980565b82800160010185558215610980579182015b8281111561097f578251825591602001919060010190610964565b5b50905061098d9190610991565b5090565b5b808211156109aa576000816000905550600101610992565b5090565b6000819050919050565b6109c1816109ae565b82525050565b60006020820190506109dc60008301846109b8565b92915050565b6000604051905090565b600080fd5b600080fd5b6109ff816109ae565b8114610a0a57600080fd5b50565b600081359050610a1c816109f6565b92915050565b600060208284031215610a3857610a376109ec565b5b6000610a4684828501610a0d565b91505092915050565b600080fd5b600080fd5b6000601f19601f8301169050919050565b7f4e487b7100000000000000000000000000000000000000000000000000000000600052604160045260246000fd5b610aa282610a59565b810181811067ffffffffffffffff82111715610ac157610ac0610a6a565b5b80604052505050565b6000610ad46109e2565b9050610ae08282610a99565b919050565b600067ffffffffffffffff821115610b0057610aff610a6a565b5b610b0982610a59565b9050602081019050919050565b82818337600083830152505050565b6000610b38610b3384610ae5565b610aca565b905082815260208101848484011115610b5457610b53610a54565b5b610b5f848285610b16565b509392505050565b600082601f830112610b7c57610b7b610a4f565b5b8135610b8c848260208601610b25565b91505092915050565b600080600060608486031215610bae57610bad6109ec565b5b600084013567ffffffffffffffff811115610bcc57610bcb6109f1565b5b610bd886828701610b67565b935050602084013567ffffffffffffffff811115610bf957610bf86109f1565b5b610c0586828701610b67565b9250506040610c1686828701610a0d565b9150509250925092565b600081519050919050565b600082825260208201905092915050565b60005b83811015610c5a578082015181840152602081019050610c3f565b83811115610c69576000848401525b50505050565b6000610c7a82610c20565b610c848185610c2b565b9350610c94818560208601610c3c565b610c9d81610a59565b840191505092915050565b600073ffffffffffffffffffffffffffffffffffffffff82169050919050565b6000610cd382610ca8565b9050919050565b610ce381610cc8565b82525050565b6000610cf482610ca8565b9050919050565b610d0481610ce9565b82525050565b60008115159050919050565b610d1f81610d0a565b82525050565b600060e0820190508181036000830152610d3f818a610c6f565b90508181036020830152610d538189610c6f565b9050610d6260408301886109b8565b610d6f6060830187610cda565b610d7c6080830186610cfb565b610d8960a08301856109b8565b610d9660c0830184610d16565b98975050505050505050565b7f4e487b7100000000000000000000000000000000000000000000000000000000600052601160045260246000fd5b6000610ddc826109ae565b9150610de7836109ae565b925082821015610dfa57610df9610da2565b5b828203905092915050565b7f4e487b7100000000000000000000000000000000000000000000000000000000600052603260045260246000fd5b7f4f6e6c792053656c6c657220436f6e6669726d2049742e000000000000000000600082015250565b6000610e6a601783610c2b565b9150610e7582610e34565b602082019050919050565b60006020820190508181036000830152610e9981610e5d565b9050919050565b7f50726f647563742070726963652067726561746572207468616e203000000000600082015250565b6000610ed6601c83610c2b565b9150610ee182610ea0565b602082019050919050565b60006020820190508181036000830152610f0581610ec9565b9050919050565b6000610f17826109ae565b9150610f22836109ae565b9250817fffffffffffffffffffffffffffffffffffffffffffffffffffffffffffffffff0483118215151615610f5b57610f5a610da2565b5b828202905092915050565b6000610f71826109ae565b91507fffffffffffffffffffffffffffffffffffffffffffffffffffffffffffffffff821415610fa457610fa3610da2565b5b600182019050919050565b60006060820190508181036000830152610fc98186610c6f565b9050610fd86020830185610cda565b610fe560408301846109b8565b949350505050565b7f4e487b7100000000000000000000000000000000000000000000000000000000600052602260045260246000fd5b6000600282049050600182168061103457607f821691505b6020821081141561104857611047610fed565b5b50919050565b7f506c656173652073656e64204578616374205072696365000000000000000000600082015250565b6000611084601783610c2b565b915061108f8261104e565b602082019050919050565b600060208201905081810360008301526110b381611077565b9050919050565b7f53656c6c657220617265206e6f74206275792050726f64756374000000000000600082015250565b60006110f0601a83610c2b565b91506110fb826110ba565b602082019050919050565b6000602082019050818103600083015261111f816110e3565b9050919050565b600060408201905061113b60008301856109b8565b6111486020830184610cda565b939250505056fea26469706673582212208973bc61ffa371096b1f8832d937e47201eba9b699dc09fb8994a212d3285d6464736f6c63430008090033",
  "linkReferences": {},
  "deployedLinkReferences": {}
}