{
  "_format": "hh-sol-artifact-1",
  "contractName": "ecommerce",
  "sourceName": "contracts/ecommerce.sol",
  "abi": [
    {
      "anonymous": false,
      "inputs": [
        {
          "indexed": false,
          "internalType": "uint256",
          "name": "productId",
          "type": "uint256"
        },
        {
          "indexed": false,
          "internalType": "address",
          "name": "buyer",
          "type": "address"
        }
      ],
      "name": "bought",
      "type": "event"
    },
    {
      "anonymous": false,
      "inputs": [
        {
          "indexed": false,
          "internalType": "uint256",
          "name": "productId",
          "type": "uint256"
        }
      ],
      "name": "delivered",
      "type": "event"
    },
    {
      "anonymous": false,
      "inputs": [
        {
          "indexed": false,
          "internalType": "string",
          "name": "title",
          "type": "string"
        },
        {
          "indexed": true,
          "internalType": "address",
          "name": "seller",
          "type": "address"
        },
        {
          "indexed": true,
          "internalType": "uint256",
          "name": "productId",
          "type": "uint256"
        },
        {
          "indexed": false,
          "internalType": "uint256",
          "name": "price",
          "type": "uint256"
        },
        {
          "indexed": false,
          "internalType": "string",
          "name": "desc",
          "type": "string"
        },
        {
          "indexed": false,
          "internalType": "string",
          "name": "imageUrl",
          "type": "string"
        }
      ],
      "name": "registered",
      "type": "event"
    },
    {
      "inputs": [
        {
          "internalType": "uint256",
          "name": "",
          "type": "uint256"
        }
      ],
      "name": "allProducts",
      "outputs": [
        {
          "internalType": "string",
          "name": "title",
          "type": "string"
        },
        {
          "internalType": "string",
          "name": "desc",
          "type": "string"
        },
        {
          "internalType": "uint256",
          "name": "price",
          "type": "uint256"
        },
        {
          "internalType": "address",
          "name": "buyer",
          "type": "address"
        },
        {
          "internalType": "address payable",
          "name": "seller",
          "type": "address"
        },
        {
          "internalType": "uint256",
          "name": "productId",
          "type": "uint256"
        },
        {
          "internalType": "string",
          "name": "imageUrl",
          "type": "string"
        },
        {
          "internalType": "bool",
          "name": "delivered",
          "type": "bool"
        }
      ],
      "stateMutability": "view",
      "type": "function"
    },
    {
      "inputs": [
        {
          "internalType": "uint256",
          "name": "_productId",
          "type": "uint256"
        }
      ],
      "name": "buy",
      "outputs": [],
      "stateMutability": "payable",
      "type": "function"
    },
    {
      "inputs": [],
      "name": "count",
      "outputs": [
        {
          "internalType": "uint256",
          "name": "",
          "type": "uint256"
        }
      ],
      "stateMutability": "view",
      "type": "function"
    },
    {
      "inputs": [
        {
          "internalType": "uint256",
          "name": "_productId",
          "type": "uint256"
        }
      ],
      "name": "delivery",
      "outputs": [],
      "stateMutability": "nonpayable",
      "type": "function"
    },
    {
      "inputs": [
        {
          "internalType": "string",
          "name": "_title",
          "type": "string"
        },
        {
          "internalType": "string",
          "name": "_desc",
          "type": "string"
        },
        {
          "internalType": "uint256",
          "name": "_price",
          "type": "uint256"
        },
        {
          "internalType": "string",
          "name": "_imageUrl",
          "type": "string"
        }
      ],
      "name": "registerProduct",
      "outputs": [],
      "stateMutability": "nonpayable",
      "type": "function"
    }
  ],
  "bytecode": "0x60806040526001805534801561001457600080fd5b506112cb806100246000396000f3fe60806040526004361061004a5760003560e01c806306661abd1461004f5780631144fd721461007a57806393544e0c146100a3578063cfaaef56146100cc578063d96a094a14610110575b600080fd5b34801561005b57600080fd5b5061006461012c565b6040516100719190610aab565b60405180910390f35b34801561008657600080fd5b506100a1600480360381019061009c9190610b06565b610132565b005b3480156100af57600080fd5b506100ca60048036038101906100c59190610c79565b61033e565b005b3480156100d857600080fd5b506100f360048036038101906100ee9190610b06565b6105d0565b604051610107989796959493929190610e39565b60405180910390f35b61012a60048036038101906101259190610b06565b61080d565b005b60015481565b3373ffffffffffffffffffffffffffffffffffffffff1660006001836101589190610efb565b8154811061016957610168610f2f565b5b906000526020600020906008020160040160009054906101000a900473ffffffffffffffffffffffffffffffffffffffff1673ffffffffffffffffffffffffffffffffffffffff16146101f1576040517f08c379a00000000000000000000000000000000000000000000000000000000081526004016101e890610faa565b60405180910390fd5b600160006001836102029190610efb565b8154811061021357610212610f2f565b5b906000526020600020906008020160070160006101000a81548160ff021916908315150217905550600060018261024a9190610efb565b8154811061025b5761025a610f2f565b5b906000526020600020906008020160040160009054906101000a900473ffffffffffffffffffffffffffffffffffffffff1673ffffffffffffffffffffffffffffffffffffffff166108fc60006001846102b59190610efb565b815481106102c6576102c5610f2f565b5b9060005260206000209060080201600201549081150290604051600060405180830381858888f19350505050158015610303573d6000803e3d6000fd5b507f4b5e4108167a669a2da8b1edeb1bf605987224cec90eeca47f7f235104539f21816040516103339190610aab565b60405180910390a150565b60008211610381576040517f08c379a000000000000000000000000000000000000000000000000000000000815260040161037890611016565b60405180910390fd5b61038961097c565b848160000181905250838160200181905250670de0b6b3a7640000836103af9190611036565b81604001818152505033816080019073ffffffffffffffffffffffffffffffffffffffff16908173ffffffffffffffffffffffffffffffffffffffff16815250506001548160a0018181525050818160c001819052506000819080600181540180825580915050600190039060005260206000209060080201600090919091909150600082015181600001908051906020019061044d9291906109ef565b50602082015181600101908051906020019061046a9291906109ef565b506040820151816002015560608201518160030160006101000a81548173ffffffffffffffffffffffffffffffffffffffff021916908373ffffffffffffffffffffffffffffffffffffffff16021790555060808201518160040160006101000a81548173ffffffffffffffffffffffffffffffffffffffff021916908373ffffffffffffffffffffffffffffffffffffffff16021790555060a0820151816005015560c08201518160060190805190602001906105299291906109ef565b5060e08201518160070160006101000a81548160ff02191690831515021790555050506001600081548092919061055f90611090565b91905055508060a001513373ffffffffffffffffffffffffffffffffffffffff167f489ff547a772c0499410d5bc400b847131452ec09d2b7e44d5166434b812178a87846040015185602001518660c001516040516105c194939291906110d9565b60405180910390a35050505050565b600081815481106105e057600080fd5b906000526020600020906008020160009150905080600001805461060390611162565b80601f016020809104026020016040519081016040528092919081815260200182805461062f90611162565b801561067c5780601f106106515761010080835404028352916020019161067c565b820191906000526020600020905b81548152906001019060200180831161065f57829003601f168201915b50505050509080600101805461069190611162565b80601f01602080910402602001604051908101604052809291908181526020018280546106bd90611162565b801561070a5780601f106106df5761010080835404028352916020019161070a565b820191906000526020600020905b8154815290600101906020018083116106ed57829003601f168201915b5050505050908060020154908060030160009054906101000a900473ffffffffffffffffffffffffffffffffffffffff16908060040160009054906101000a900473ffffffffffffffffffffffffffffffffffffffff169080600501549080600601805461077790611162565b80601f01602080910402602001604051908101604052809291908181526020018280546107a390611162565b80156107f05780601f106107c5576101008083540402835291602001916107f0565b820191906000526020600020905b8154815290600101906020018083116107d357829003601f168201915b5050505050908060070160009054906101000a900460ff16905088565b34600060018361081d9190610efb565b8154811061082e5761082d610f2f565b5b90600052602060002090600802016002015414610880576040517f08c379a0000000000000000000000000000000000000000000000000000000008152600401610877906111e0565b60405180910390fd5b3373ffffffffffffffffffffffffffffffffffffffff1660006001836108a69190610efb565b815481106108b7576108b6610f2f565b5b906000526020600020906008020160040160009054906101000a900473ffffffffffffffffffffffffffffffffffffffff1673ffffffffffffffffffffffffffffffffffffffff161415610940576040517f08c379a00000000000000000000000000000000000000000000000000000000081526004016109379061124c565b60405180910390fd5b7f2c9b5e9655a41ab13c5183c231239df125ecbd546a947624c913cfd43094906e813360405161097192919061126c565b60405180910390a150565b604051806101000160405280606081526020016060815260200160008152602001600073ffffffffffffffffffffffffffffffffffffffff168152602001600073ffffffffffffffffffffffffffffffffffffffff16815260200160008152602001606081526020016000151581525090565b8280546109fb90611162565b90600052602060002090601f016020900481019282610a1d5760008555610a64565b82601f10610a3657805160ff1916838001178555610a64565b82800160010185558215610a64579182015b82811115610a63578251825591602001919060010190610a48565b5b509050610a719190610a75565b5090565b5b80821115610a8e576000816000905550600101610a76565b5090565b6000819050919050565b610aa581610a92565b82525050565b6000602082019050610ac06000830184610a9c565b92915050565b6000604051905090565b600080fd5b600080fd5b610ae381610a92565b8114610aee57600080fd5b50565b600081359050610b0081610ada565b92915050565b600060208284031215610b1c57610b1b610ad0565b5b6000610b2a84828501610af1565b91505092915050565b600080fd5b600080fd5b6000601f19601f8301169050919050565b7f4e487b7100000000000000000000000000000000000000000000000000000000600052604160045260246000fd5b610b8682610b3d565b810181811067ffffffffffffffff82111715610ba557610ba4610b4e565b5b80604052505050565b6000610bb8610ac6565b9050610bc48282610b7d565b919050565b600067ffffffffffffffff821115610be457610be3610b4e565b5b610bed82610b3d565b9050602081019050919050565b82818337600083830152505050565b6000610c1c610c1784610bc9565b610bae565b905082815260208101848484011115610c3857610c37610b38565b5b610c43848285610bfa565b509392505050565b600082601f830112610c6057610c5f610b33565b5b8135610c70848260208601610c09565b91505092915050565b60008060008060808587031215610c9357610c92610ad0565b5b600085013567ffffffffffffffff811115610cb157610cb0610ad5565b5b610cbd87828801610c4b565b945050602085013567ffffffffffffffff811115610cde57610cdd610ad5565b5b610cea87828801610c4b565b9350506040610cfb87828801610af1565b925050606085013567ffffffffffffffff811115610d1c57610d1b610ad5565b5b610d2887828801610c4b565b91505092959194509250565b600081519050919050565b600082825260208201905092915050565b60005b83811015610d6e578082015181840152602081019050610d53565b83811115610d7d576000848401525b50505050565b6000610d8e82610d34565b610d988185610d3f565b9350610da8818560208601610d50565b610db181610b3d565b840191505092915050565b600073ffffffffffffffffffffffffffffffffffffffff82169050919050565b6000610de782610dbc565b9050919050565b610df781610ddc565b82525050565b6000610e0882610dbc565b9050919050565b610e1881610dfd565b82525050565b60008115159050919050565b610e3381610e1e565b82525050565b6000610100820190508181036000830152610e54818b610d83565b90508181036020830152610e68818a610d83565b9050610e776040830189610a9c565b610e846060830188610dee565b610e916080830187610e0f565b610e9e60a0830186610a9c565b81810360c0830152610eb08185610d83565b9050610ebf60e0830184610e2a565b9998505050505050505050565b7f4e487b7100000000000000000000000000000000000000000000000000000000600052601160045260246000fd5b6000610f0682610a92565b9150610f1183610a92565b925082821015610f2457610f23610ecc565b5b828203905092915050565b7f4e487b7100000000000000000000000000000000000000000000000000000000600052603260045260246000fd5b7f4f6e6c792053656c6c657220436f6e6669726d2049742e000000000000000000600082015250565b6000610f94601783610d3f565b9150610f9f82610f5e565b602082019050919050565b60006020820190508181036000830152610fc381610f87565b9050919050565b7f50726f647563742070726963652067726561746572207468616e203000000000600082015250565b6000611000601c83610d3f565b915061100b82610fca565b602082019050919050565b6000602082019050818103600083015261102f81610ff3565b9050919050565b600061104182610a92565b915061104c83610a92565b9250817fffffffffffffffffffffffffffffffffffffffffffffffffffffffffffffffff048311821515161561108557611084610ecc565b5b828202905092915050565b600061109b82610a92565b91507fffffffffffffffffffffffffffffffffffffffffffffffffffffffffffffffff8214156110ce576110cd610ecc565b5b600182019050919050565b600060808201905081810360008301526110f38187610d83565b90506111026020830186610a9c565b81810360408301526111148185610d83565b905081810360608301526111288184610d83565b905095945050505050565b7f4e487b7100000000000000000000000000000000000000000000000000000000600052602260045260246000fd5b6000600282049050600182168061117a57607f821691505b6020821081141561118e5761118d611133565b5b50919050565b7f506c656173652073656e64204578616374205072696365000000000000000000600082015250565b60006111ca601783610d3f565b91506111d582611194565b602082019050919050565b600060208201905081810360008301526111f9816111bd565b9050919050565b7f53656c6c657220617265206e6f74206275792050726f64756374000000000000600082015250565b6000611236601a83610d3f565b915061124182611200565b602082019050919050565b6000602082019050818103600083015261126581611229565b9050919050565b60006040820190506112816000830185610a9c565b61128e6020830184610dee565b939250505056fea2646970667358221220f319a3f32b41f36335aca9de288a4a1a8df3d92cc96542b2b7d990806875d56a64736f6c63430008090033",
  "linkReferences": {},
  "deployedLinkReferences": {}
}